:020000040800F2
:10000000FCFF0020B11000009510000095100000CA
:10001000951000009510000095100000951000004C
:10002000951000009510000095100000951000003C
:10003000951000009510000095100000951000002C
:10004000951000009510000095100000951000001C
:10005000951000009510000095100000951000000C
:1000600095100000951000009510000095100000FC
:1000700095100000951000009510000095100000EC
:1000800095100000951000009510000095100000DC
:1000900095100000951000009510000095100000CC
:1000A00095100000951000009510000095100000BC
:1000B00095100000951000009510000095100000AC
:1000C000951000009510000095100000951000009C
:1000D000951000009510000095100000951000008C
:1000E000951000009510000095100000951000007C
:1000F000951000009510000095100000951000006C
:10010000951000009510000095100000951000005B
:10011000951000009510000095100000951000004B
:10012000951000009510000095100000951000003B
:10013000951000009510000095100000951000002B
:10014000951000009510000095100000951000001B
:1001500083B0CDF800E000F0FF031A09104603F069
:100160000F02134614E0194A02921FE0184A029245
:100170001CE0184A029219E0174A029216E0174A48
:10018000029213E0164A029210E0164A02920DE023
:100190000028E8D00128E9D00228EAD00328EBD0D3
:1001A0000428ECD00528EDD00628EED0012212B2AA
:1001B0009A40ADF8042002980A46BDF8041000F0F9
:1001C0006BF8DDF800E003B0704700BF00080140A5
:1001D000000C0140001001400014014000180140D3
:1001E000001C01400020014081B0194900EA0101D2
:1001F000084600220EE0042022E0082020E0102023
:100200001EE020201CE040201AE0802018E040F290
:10021000001015E00F498842EDD00F498842ECD01C
:100220000E498842EBD00E498842EAD00D498842F7
:10023000E9D00D498842E8D00C498842E7D0104601
:100240000B49096841EA000209490A6001B0704798
:1002500000FCFFFF00080140000C014000100140BD
:100260000014014000180140001C01400020014022
:100270001810024081B000F20C02116000F2080276
:100280001368C3F3000202B9F8E700F20C02126827
:1002900090B201B07047FFFF81B0CDF800E08CB2A2
:1002A0001546774B00EA03031E461846FFF79CFFEE
:1002B000B4F1FF0F0CD1734B9D4203D14FF0333398
:1002C0003360D9E0422D03D14FF044333360D3E0A3
:1002D0004FF6FF739C4214D16A4B9D4207D14FF0F9
:1002E00033333360341D4FF033332360C4E0422D89
:1002F00007D14FF044333360341D4FF04433236053
:10030000BAE00021002005F001030BB100211DE03F
:1003100005F0020333B105F4C0730BB1082100E00E
:10032000042113E005F0040333B105F020030BB101
:10033000042100E0002109E005F0080333B105F0D5
:1003400020030BB10C2100E00821FFE74E4B05EA2A
:1003500003030BB1032009E005F400730BB1022085
:1003600004E005F480630BB10120FFE705F00C0306
:100370000BB10143FFE704F0FF039BB2002B3BD01E
:10038000376800201FFA84F832462E4608282CD2FF
:100390004FF0010303FA00F408EA0403A34222D158
:1003A00085004FF00F03AB40DB4307EA030401FA7B
:1003B00005F344EA03031D4606F48173B3F5817F18
:1003C00005D102F214044FF001038340236006F0CC
:1003D0008203822B05D102F210044FF00103834007
:1003E00023602F46FFE7401CD0E717601FFA88F014
:1003F0000F463146164602E00F462946A0B2B0F13C
:10040000FF0F39D9331DD3F800800022082A30D2DB
:1004100002F208044FF0010303FA04F400EA0403B3
:10042000A34224D195004FF00F03AB40DB4308EA11
:10043000030807FA05F348EA030801F48173B3F5EA
:10044000817F07D106F2140502F208044FF0010380
:10045000A3402B6001F08203822B07D106F2100526
:1004600002F208044FF00103A3402B60FFE7521C87
:10047000CCE7331DC3F80080DDF800E001B0704721
:1004800000FCFFFF140008000008080081B00023F2
:100490000360CB009BB242EA030304689BB244EAC8
:1004A00003030360051D13141C462B6864F38203C9
:1004B0002B6000F21C0500242B6864F3CB232B6017
:1004C0000124036864F38613036001B07047FFFFE3
:1004D00081B0CDF800E0012252B23E490A6000F23C
:1004E00068010B686FF0006103EA0102144603F033
:1004F0000061C90E0B4602F00041B1F1004F02D17C
:1005000035490A6801E035490A6804F47021090C8C
:100510000E464FF6FF7104EA01010D4604F4401146
:10052000B1F5401F0DD16FF0706102EA01010E4676
:100530002A490A686FF070610A4028490A60324609
:1005400016E004F48011B1F5801F09D14FF00301CA
:10055000B140C94302EA010141F070610A4607E077
:10056000610D090105FA01F1C9430A4042F07062C8
:100570002BB1610D090105FA01F10A43FFE704F00F
:100580000041B1F1004F02D113490A6001E0134963
:100590000A6040F2000A81464FEA8A0109EB010134
:1005A0000968B1F1FF3F10D009F134014FEA8A0325
:1005B000C91809680A4609EB03010968084611468B
:1005C000FFF7C6FD0AF1010AE6E7DDF800E001B039
:1005D000704700BF000342421C000140040001407C
:1005E00081B0ADF800100146BDF800000B68C3F300
:1005F000C01202B9FAE70A1D106001B07047FFFF90
:1006000081B0CDF800E081B20348FFF7E9FFDDF8E3
:1006100000E001B0704700BF0048004081B0CDF855
:1006200000E081B20348FFF7DBFFDDF800E001B036
:10063000704700BF0044004081B0CDF800E081B2B7
:100640000348FFF7CDFFDDF800E001B0704700BFC1
:10065000004C004081B0CDF800E081B20348FFF7C4
:1006600009FEDDF800E001B0704700BF0030014036
:1006700081B0CDF800E081B20348FFF7B1FFDDF8AB
:1006800000E001B0704700BF0050004083B0CDF8DB
:1006900000E08DF8040002910B4C0C4B1C600C4CDC
:1006A0000C4B1C60012464B20B4B1C601046FFF71E
:1006B0000FFF029A9DF804100848FFF7E7FEDDF8E7
:1006C00000E003B0704700BFFFFFFFFF18000020ED
:1006D0004D0700001C000020BC034242003C0040CB
:1006E00081B0CDF800E0044A89B2FFF7D5FDDDF80E
:1006F00000E001B0704700BF1400080081B0CDF8E1
:1007000000E04FF0420289B2FFF7C6FDDDF800E0DD
:1007100001B0704781B0CDF800E081B20348FFF727
:100720005FFFDDF800E001B0704700BF0038014016
:1007300081B0CDF800E081B20348FFF79BFDDDF802
:1007400000E001B0704700BF0038004081B0CDF834
:1007500000E081B20348FFF78DFDDDF800E001B055
:10076000704700BF003C004001490860704700BF6F
:10077000B081224201490860704700BFB081224227
:1007800001490860704700BF988122420149086012
:10079000704700BFB001224201490860704700BFA6
:1007A000B881224201490860704700BFA801224277
:1007B00001490860704700BFAC0122420268084945
:1007C0000A6000F208010A6806490A60011D0A6809
:1007D00005490A6000F218010A6804490A60704776
:1007E000100000200C000020080000201400002051
:1007F00044F67F77C0F212077F1EFDD100BF00BF15
:1008000000BF00BF00BF704783B0CDF800E08AB2E0
:10081000014690B283B2421E90B26BB10A78D4B254
:10082000ADF804000291A0B2054C2468A0470299DB
:10083000BDF80400491CEDE7DDF800E003B07047A7
:1008400000000020026803490A60011D0A6802498D
:100850000A60704700000020040000200149086081
:10086000704700BF9481224201490860704700BF71
:100870009881214201490860704700BF9C81214254
:1008800001490860704700BF8C012242014908609D
:10089000704700BF8801224201490860704700BFCD
:1008A0009001214201490860704700BFA80122421F
:1008B00001490860704700BFB481224281B0CDF881
:1008C00000E0011D0A680168C8B21146034AFFF73B
:1008D000DDFE0020DDF800E001B0704710120000DE
:1008E00081B0CDF800E0011D0A680168C8B2114668
:1008F000034AFFF7CBFE0020DDF800E001B07047AF
:100900001012000081B0CDF800E0A9E0012905D166
:1009100040F210016548FFF7F1FE04E040F21001DB
:100920006248FFF7DDFEBBE0012905D140F204017A
:100930005F48FFF7E3FE04E040F204015C48FFF784
:10094000CFFEADE0012905D142F200015948FFF781
:10095000D5FE04E042F200015648FFF7C1FE9FE0D9
:10096000012905D140F200415148FFF7C7FE04E0DC
:1009700040F200414E48FFF7B3FE91E0012905D156
:1009800040F600014A48FFF7B9FE04E040F60001D6
:100990004748FFF7A5FE83E0012905D141F2000198
:1009A0004348FFF7ABFE04E041F200014048FFF787
:1009B00097FE75E0012905D140F201013B48FFF7A0
:1009C0009DFE04E040F201013848FFF789FE67E030
:1009D000012905D140F200413648FFF78FFE04E0BF
:1009E00040F200413348FFF77BFE59E0012905D171
:1009F00040F200212F48FFF781FE04E040F2002181
:100A00002C48FFF76DFE4BE0012905D140F20011A3
:100A10002848FFF773FE04E040F200112548FFF775
:100A20005FFE3DE0012905D140F240012248FFF779
:100A300065FE04E040F240011F48FFF751FE2FE041
:100A4000012905D140F280011B48FFF757FE04E061
:100A500040F280011848FFF743FE21E0012020E02A
:100A600000283FF453AF01283FF45EAF02283FF463
:100A700069AF03283FF474AF04283FF47FAF052823
:100A80003FF48AAF06283FF495AF0728A0D0082886
:100A9000ACD00928B8D00A28C4D00B28D0D0DDE7C4
:100AA0000020DDF800E001B0704700BF0008014001
:100AB0000010014000140140000C014081B0CDF84D
:100AC00000E0A9E0012905D140F220016548FFF7C7
:100AD00015FE04E040F220016248FFF701FEBBE092
:100AE000012905D140F208015F48FFF707FE04E045
:100AF00040F208015C48FFF7F3FDADE0012905D1A4
:100B000044F200015948FFF7F9FD04E044F2000106
:100B10005648FFF7E5FD9FE0012905D140F200416D
:100B20005148FFF7EBFD04E040F200414E48FFF76B
:100B3000D7FD91E0012905D140F600014A48FFF7B1
:100B4000DDFD04E040F600014748FFF7C9FD83E002
:100B5000012905D141F200014348FFF7CFFD04E030
:100B600041F200014048FFF7BBFD75E0012905D1C6
:100B700041F200013D48FFF7C1FD04E041F20001F0
:100B80003A48FFF7ADFD67E0012905D140F60001C5
:100B90003648FFF7B3FD04E040F600013348FFF7A5
:100BA0009FFD59E0012905D140F240012F48FFF790
:100BB000A5FD04E040F240012C48FFF791FD4BE019
:100BC000012905D140F220012848FFF797FD04E0F4
:100BD00040F220012548FFF783FD3DE0012905D1C2
:100BE00040F240012248FFF789FD04E040F2400155
:100BF0001F48FFF775FD2FE0012905D140F2800164
:100C00001B48FFF77BFD04E040F280011848FFF726
:100C100067FD21E0012020E000283FF453AF0128C8
:100C20003FF45EAF02283FF469AF03283FF474AF8E
:100C300004283FF47FAF05283FF48AAF06283FF42D
:100C400095AF0728A0D00828ACD00928B8D00A282A
:100C5000C4D00B28D0D0DDE70020DDF800E001B0E3
:100C6000704700BF0008014000100140001401401F
:100C7000000C014001490860704700BFAC012242EE
:100C800001490860704700BF9C812142014908600A
:100C9000704700BFA481224201490860704700BF2D
:100CA0009881214201490860704700BFA08122421B
:100CB00001490860704700BF800121420149086076
:100CC000704700BFB001224201490860704700BF71
:100CD0009401214201490860704700BFA881224267
:100CE00081B0CDF800E08B4609E05846FFF7F8FDEB
:100CF0000AE05846FFF7E2FD06E0012004E0002884
:100D0000F3D00128F5D0F8E7DDF800E001B0704736
:100D100082B0CDF800E001AA010A89B201F0FF011A
:100D2000C9B21170521C00F0FF01C9B2117000204D
:100D3000074C2468A04701A908460221FFF764FD7B
:100D40000120034C2468A047DDF800E002B07047A2
:100D50000800002081B0CDF800E05FFA81F95FFA69
:100D600082FA0FE05FFA8AF15FFA89F0FFF7CAFDB5
:100D70000DE05FFA8AF15FFA89F0FFF79FFE06E067
:100D8000012004E00028EDD00128F2D0F8E7DDF8DA
:100D900000E001B07047FFFF82B0CDF800E001AA8B
:100DA000010A89B201F0FF01C9B21170521C00F0B2
:100DB000FF01C9B211700020074C2468A04701A9A7
:100DC00008460221FFF720FD0120034C2468A047BC
:100DD000DDF800E002B070470C00002081B0CDF8D3
:100DE00000E00020084C2468A047FFF701FDFFF752
:100DF000FFFC0120044C2468A047FFF7F9FCDDF854
:100E000000E001B0704700BF1000002081B0CDF8B5
:100E100000E003460846FFF715FD1846FFF7CEFC35
:100E20000120054C2468A0470120044C2468A047F9
:100E3000DDF800E001B07047080000200C00002041
:100E400081B01548006840F0010113480160134962
:100E50001348016010480168124801400E480160C3
:100E60000D4801686FF4802001400B4801600C4878
:100E700001686FF4FE0001400948016006480168FE
:100E80006FF0A0500140044801604FF00001064897
:100E9000016001B0704700BF001002400000FFF089
:100EA00004100240FFFFF6FE2C10024081B01CF837
:100EB000019B0BF8019BBBEB0A0FF8D101B0704707
:100EC00081B04FF000094FF0000CBDEB0A0F04DCBD
:100ED000BDEB0B0F01DBD446EA464BF8049BBBEBA2
:100EE0000A0FFAD1BCEB0A0F05DDE246D9F800B0D3
:100EF0000BF1040BF1E701B07047FFFFFFFFFFFFAD
:100F000081B0CDF800E047F60030FFF745FF45F22D
:100F1000FF07C0F2252700BF00BF7F1EFDD100BF25
:100F200000BF00BF47F65010FFF736FF45F2FF073E
:100F3000C0F2252700BF00BF7F1EFDD100BF00BF4C
:100F400000BF47F2E050FFF727FF45F2FF07C0F26E
:100F500025277F1EFDD100BF00BF00BF00BF00BF1F
:100F600047F22040FFF718FF45F2FF07C0F22527A0
:100F70007F1EFDD100BF00BF00BF00BF00BF47F212
:100F8000E050FFF709FF45F2FF07C0F2252700BF39
:100F900000BF7F1EFDD100BF00BF00BF47F650104D
:100FA000FFF7FAFE47F6A210FFF7B2FE45F2FF0781
:100FB000C0F2252700BF00BF7F1EFDD100BF00BFCC
:100FC00000BF47F66A00FFF7A3FE45F2FF07C0F235
:100FD00025277F1EFDD100BF00BF00BF00BF00BF9F
:100FE00047F23050FFF794FE45F2FF07C0F2252785
:100FF0007F1EFDD100BF00BF00BF00BF00BF47F68E
:101000006A00FFF785FEDDF800E001B07047FFFFE2
:1010100081B0CDF800E005490548FFF7F7FEFFF77E
:10102000DDFEDDF800E001B0704700BFE412000013
:101030007C120000FFFFFFFF81B0CDF800E000222E
:1010400006210020FFF786FE002200210020FFF786
:1010500081FE002201210020FFF77CFE00220221F8
:101060000020FFF777FE0A4801460020FFF738FE10
:1010700044F67F77C0F212077F1EFDD100BF00BF8C
:1010800000BF00BF00BFDDF800E001B0704700BF47
:10109000DC12000081B0FEE701B0704781B0024968
:1010A0000248016001B07047401901002000002093
:1010B00000F00CF800F01AF9FFF7F0FFFFF7BCFFA3
:1010C000FFF7A6FFFFF71CFFFCE7FEE781B0CDF8B6
:1010D00000E0464A464B474C47494BF68030814238
:1010E00006D94648006840F002014448016011E01A
:1010F00045F6C050814206D94048006840F00101E1
:101100003E48016006E03D4801686FF0070001407D
:101110003A480160FFF794FE39480360394804609B
:10112000394802EA00013948016002F0010040B18B
:1011300019463648006800F00200002800D1F8E7A0
:1011400000E0194602F4803040B10B462F48006899
:1011500000F40030002800D1F8E700E00B4602F070
:10116000805068B12948006840F0805127480160EC
:101170002648006800F00050002800D1F8E7FFE79B
:1011800002F0806078B12148006840F080611F481B
:10119000016011461A461D48006800F000600028F2
:1011A00000D1F8E701E011461A4601F0807070B1F5
:1011B0001648006840F080711448016011461348D9
:1011C000006800F0007000B9F9E70A46FFE70C4834
:1011D000006800F00C01900000F00C00814200D08B
:1011E000F5E7DDF800E001B0704700BF81000105C0
:1011F00002841D0044060100401901000020024045
:10120000041002402C100240FFFF0F0000100240AB
:101210002A0000002B0000002C000000FFFFFFFF51
:1012200000000000000000000000000000000000BE
:1012300000000000000000000000000000000000AE
:10124000000000001808000018080000180800003E
:10125000000000000000000000000000000000008E
:10126000000000000000000000000000000000007E
:101270000000000000000000001120089908000094
:101280008D080000B1080000A5080000750C0000E2
:10129000BD0C0000B10C0000D50C00008D0C00004E
:1012A000A50C0000990C0000810C0000FFFFFFFF5F
:1012B000FFFFFFFFFFFFFFFFFFFFFFFFFFFFFFFF3E
:1012C000FFFFFFFFFFFFFFFFFFFFFFFFFFFFFFFF2E
:1012D000FFFFFFFFFFFFFFFFFFFFFFFF0700000013
:1012E000040300004D070000FFFFFFFF00B5DFF81B
:1012F00010B0DFF810A0FFF7E3FD00BD704700BF9E
:101300000000002024000020FFFFFFFFFFFFFFFF81
:00000001FF
